{
  "contractName": "HackathonBetting",
  "abi": [
    {
      "constant": true,
      "inputs": [],
      "name": "name",
      "outputs": [
        {
          "name": "",
          "type": "string"
        }
      ],
      "payable": false,
      "stateMutability": "view",
      "type": "function"
    },
    {
      "constant": true,
      "inputs": [],
      "name": "totalHackathonBetAmount",
      "outputs": [
        {
          "name": "",
          "type": "uint256"
        }
      ],
      "payable": false,
      "stateMutability": "view",
      "type": "function"
    },
    {
      "constant": true,
      "inputs": [],
      "name": "bettorsCount",
      "outputs": [
        {
          "name": "",
          "type": "uint256"
        }
      ],
      "payable": false,
      "stateMutability": "view",
      "type": "function"
    },
    {
      "constant": true,
      "inputs": [
        {
          "name": "",
          "type": "address"
        }
      ],
      "name": "bettors",
      "outputs": [
        {
          "name": "tid",
          "type": "uint256"
        },
        {
          "name": "betAmount",
          "type": "uint256"
        },
        {
          "name": "isBetPlaced",
          "type": "bool"
        }
      ],
      "payable": false,
      "stateMutability": "view",
      "type": "function"
    },
    {
      "constant": true,
      "inputs": [
        {
          "name": "",
          "type": "uint256"
        }
      ],
      "name": "teams",
      "outputs": [
        {
          "name": "id",
          "type": "uint256"
        },
        {
          "name": "name",
          "type": "string"
        },
        {
          "name": "betCount",
          "type": "uint256"
        },
        {
          "name": "totalBetAmount",
          "type": "uint256"
        }
      ],
      "payable": false,
      "stateMutability": "view",
      "type": "function"
    },
    {
      "constant": true,
      "inputs": [],
      "name": "teamsCount",
      "outputs": [
        {
          "name": "",
          "type": "uint256"
        }
      ],
      "payable": false,
      "stateMutability": "view",
      "type": "function"
    },
    {
      "constant": true,
      "inputs": [],
      "name": "minBetAmount",
      "outputs": [
        {
          "name": "",
          "type": "uint256"
        }
      ],
      "payable": false,
      "stateMutability": "view",
      "type": "function"
    },
    {
      "inputs": [],
      "payable": false,
      "stateMutability": "nonpayable",
      "type": "constructor"
    },
    {
      "constant": false,
      "inputs": [
        {
          "name": "teamName",
          "type": "string"
        }
      ],
      "name": "addTeam",
      "outputs": [],
      "payable": false,
      "stateMutability": "nonpayable",
      "type": "function"
    },
    {
      "constant": false,
      "inputs": [
        {
          "name": "_teamId",
          "type": "uint256"
        }
      ],
      "name": "placeBet",
      "outputs": [],
      "payable": true,
      "stateMutability": "payable",
      "type": "function"
    },
    {
      "constant": false,
      "inputs": [
        {
          "name": "winnerTeamId",
          "type": "uint256"
        }
      ],
      "name": "prizeDistribution",
      "outputs": [],
      "payable": false,
      "stateMutability": "nonpayable",
      "type": "function"
    }
  ],
  "bytecode": "0x60806040523480156200001157600080fd5b506040518060400160405280600581526020017f496e4f7574000000000000000000000000000000000000000000000000000000815250600090805190602001906200005f929190620002a1565b506001600281905550620000ae6040518060400160405280600d81526020017f534f5f5245555345504f535254000000000000000000000000000000000000008152506200021260201b60201c565b620000f46040518060400160405280600c81526020017f414e4f544845525f5445414d00000000000000000000000000000000000000008152506200021260201b60201c565b6200013a6040518060400160405280600181526020017f33000000000000000000000000000000000000000000000000000000000000008152506200021260201b60201c565b620001806040518060400160405280600181526020017f34000000000000000000000000000000000000000000000000000000000000008152506200021260201b60201c565b620001c66040518060400160405280600181526020017f35000000000000000000000000000000000000000000000000000000000000008152506200021260201b60201c565b6200020c6040518060400160405280600181526020017f36000000000000000000000000000000000000000000000000000000000000008152506200021260201b60201c565b620003d7565b600160008154809291906001019190505550604051806080016040528060015481526020018281526020016000815260200160008152506005600060015481526020019081526020016000206000820151816000015560208201518160010190805190602001906200028692919062000328565b50604082015181600201556060820151816003015590505050565b828054600181600116156101000203166002900490600052602060002090601f016020900481019282601f10620002e457805160ff191683800117855562000315565b8280016001018555821562000315579182015b8281111562000314578251825591602001919060010190620002f7565b5b509050620003249190620003af565b5090565b828054600181600116156101000203166002900490600052602060002090601f016020900481019282601f106200036b57805160ff19168380011785556200039c565b828001600101855582156200039c579182015b828111156200039b5782518255916020019190600101906200037e565b5b509050620003ab9190620003af565b5090565b620003d491905b80821115620003d0576000816000905550600101620003b6565b5090565b90565b610afc80620003e76000396000f3fe6080604052600436106100915760003560e01c80633ed2b77a116100595780633ed2b77a1461022157806354c237b7146102ea578063c497bc4c14610325578063f119ada414610350578063fa968eea1461041857610091565b806306fdde03146100965780630cc958ee1461012657806310fe7c481461015157806314cb61be1461017f57806322010c1f146101aa575b600080fd5b3480156100a257600080fd5b506100ab610443565b6040518080602001828103825283818151815260200191508051906020019080838360005b838110156100eb5780820151818401526020810190506100d0565b50505050905090810190601f1680156101185780820380516001836020036101000a031916815260200191505b509250505060405180910390f35b34801561013257600080fd5b5061013b6104e1565b6040518082815260200191505060405180910390f35b61017d6004803603602081101561016757600080fd5b81019080803590602001909291905050506104e7565b005b34801561018b57600080fd5b506101946106cb565b6040518082815260200191505060405180910390f35b3480156101b657600080fd5b506101f9600480360360208110156101cd57600080fd5b81019080803573ffffffffffffffffffffffffffffffffffffffff1690602001909291905050506106d1565b6040518084815260200183815260200182151515158152602001935050505060405180910390f35b34801561022d57600080fd5b5061025a6004803603602081101561024457600080fd5b8101908080359060200190929190505050610708565b6040518085815260200180602001848152602001838152602001828103825285818151815260200191508051906020019080838360005b838110156102ac578082015181840152602081019050610291565b50505050905090810190601f1680156102d95780820380516001836020036101000a031916815260200191505b509550505050505060405180910390f35b3480156102f657600080fd5b506103236004803603602081101561030d57600080fd5b81019080803590602001909291905050506107d0565b005b34801561033157600080fd5b5061033a61096f565b6040518082815260200191505060405180910390f35b34801561035c57600080fd5b506104166004803603602081101561037357600080fd5b810190808035906020019064010000000081111561039057600080fd5b8201836020820111156103a257600080fd5b803590602001918460018302840111640100000000831117156103c457600080fd5b91908080601f016020809104026020016040519081016040528093929190818152602001838380828437600081840152601f19601f820116905080830192505050505050509192919290505050610975565b005b34801561042457600080fd5b5061042d610a02565b6040518082815260200191505060405180910390f35b60008054600181600116156101000203166002900480601f0160208091040260200160405190810160405280929190818152602001828054600181600116156101000203166002900480156104d95780601f106104ae576101008083540402835291602001916104d9565b820191906000526020600020905b8154815290600101906020018083116104bc57829003601f168201915b505050505081565b60045481565b600760003373ffffffffffffffffffffffffffffffffffffffff1673ffffffffffffffffffffffffffffffffffffffff16815260200190815260200160002060020160009054906101000a900460ff161561054157600080fd5b60008111801561055357506001548111155b61055c57600080fd5b6000349050604051806060016040528083815260200182815260200160011515815250600760003373ffffffffffffffffffffffffffffffffffffffff1673ffffffffffffffffffffffffffffffffffffffff168152602001908152602001600020600082015181600001556020820151816001015560408201518160020160006101000a81548160ff021916908315150217905550905050600560008381526020019081526020016000206002016000815480929190600101919050555060036000815480929190600101919050555060063390806001815401808255809150509060018203906000526020600020016000909192909190916101000a81548173ffffffffffffffffffffffffffffffffffffffff021916908373ffffffffffffffffffffffffffffffffffffffff16021790555050806005600084815260200190815260200160002060030160008282540192505081905550806004600082825401925050819055505050565b60035481565b60076020528060005260406000206000915090508060000154908060010154908060020160009054906101000a900460ff16905083565b6005602052806000526040600020600091509050806000015490806001018054600181600116156101000203166002900480601f0160208091040260200160405190810160405280929190818152602001828054600181600116156101000203166002900480156107ba5780601f1061078f576101008083540402835291602001916107ba565b820191906000526020600020905b81548152906001019060200180831161079d57829003601f168201915b5050505050908060020154908060030154905084565b6000811180156107e257506001548111155b6107eb57600080fd5b6000600560008381526020019081526020016000206003015490506000816004540390506000600190505b60035481116109695760006006828154811061082e57fe5b9060005260206000200160009054906101000a900473ffffffffffffffffffffffffffffffffffffffff169050610863610a08565b600760008373ffffffffffffffffffffffffffffffffffffffff1673ffffffffffffffffffffffffffffffffffffffff16815260200190815260200160002060405180606001604052908160008201548152602001600182015481526020016002820160009054906101000a900460ff1615151515815250509050806040015180156108f25750806000015186145b1561095a576000848683602001518161090757fe5b040282602001510190508273ffffffffffffffffffffffffffffffffffffffff166108fc829081150290604051600060405180830381858888f19350505050158015610957573d6000803e3d6000fd5b50505b50508080600101915050610816565b50505050565b60015481565b600160008154809291906001019190505550604051806080016040528060015481526020018281526020016000815260200160008152506005600060015481526020019081526020016000206000820151816000015560208201518160010190805190602001906109e7929190610a2b565b50604082015181600201556060820151816003015590505050565b60025481565b604051806060016040528060008152602001600081526020016000151581525090565b828054600181600116156101000203166002900490600052602060002090601f016020900481019282601f10610a6c57805160ff1916838001178555610a9a565b82800160010185558215610a9a579182015b82811115610a99578251825591602001919060010190610a7e565b5b509050610aa79190610aab565b5090565b610acd91905b80821115610ac9576000816000905550600101610ab1565b5090565b9056fea165627a7a72305820f78dc457b93d5ed29ae6038dc3bf467d703b0e9aa08fcf3471d731d3f69fd84a0029",
  "source": "pragma solidity ^0.5.8;\n\ncontract HackathonBetting {\n\n    struct Team {\n        uint id;\n        string  name;\n        uint  betCount;\n        uint  totalBetAmount;\n    }\n\n    struct Bet {\n        uint tid;\n        uint betAmount;\n        bool isBetPlaced;\n    }\n\n    string public name;\n    uint public teamsCount;\n    uint public minBetAmount;\n    uint public bettorsCount;\n    uint public totalHackathonBetAmount;\n\n    mapping(uint => Team) public teams;\n    address payable[] bettorAddresses;\n    mapping(address => Bet) public bettors;\n    \n    function addTeam(string memory teamName) public {\n        teamsCount++;\n        teams[teamsCount] = Team(teamsCount, teamName, 0, 0);\n    }\n\n    constructor() public {\n        name = \"InOut\";\n        minBetAmount = 1;\n        addTeam(\"SO_REUSEPOSRT\");\n        addTeam(\"ANOTHER_TEAM\");\n        addTeam(\"3\");\n        addTeam(\"4\");\n        addTeam(\"5\");\n        addTeam(\"6\");\n    }\n\n    function placeBet (uint _teamId) public payable {\n        require(!bettors[msg.sender].isBetPlaced);\n        require(_teamId > 0 && _teamId <= teamsCount);\n        uint amount = msg.value;\n        bettors[msg.sender] = Bet(_teamId, amount, true);\n        teams[_teamId].betCount++;\n        bettorsCount++;\n        bettorAddresses.push(msg.sender);\n        // address payable payableAddress = address(this);\n        // address(payableAddress).transfer(amount);\n        teams[_teamId].totalBetAmount+= amount;\n        totalHackathonBetAmount+= amount;\n    }\n\n    function prizeDistribution(uint winnerTeamId) public {\n        require(winnerTeamId > 0 && winnerTeamId <= teamsCount);\n        uint winningTeamBetAmount = teams[winnerTeamId].totalBetAmount;\n        uint totalWonAmount = totalHackathonBetAmount - winningTeamBetAmount;\n        for(uint i=1; i <=bettorsCount; i++) {\n            address payable bettorAddress = bettorAddresses[i];\n            Bet memory bet =  bettors[bettorAddress];\n            if(bet.isBetPlaced && winnerTeamId == bet.tid) {\n                uint winAmount = bet.betAmount + ((bet.betAmount/winningTeamBetAmount) * totalWonAmount);\n                address(bettorAddress).transfer(winAmount);\n            }\n        }\n    }\n}",
  "sourcePath": "/Users/shubham.sa/sawant/betGame/contracts/HackathonBetting.sol",
  "compiler": {
    "name": "solc",
    "version": "0.5.8+commit.23d335f2.Emscripten.clang"
  },
  "schemaVersion": "3.0.16",
  "updatedAt": "2019-10-20T10:10:22.631Z",
  "devdoc": {
    "methods": {}
  },
  "userdoc": {
    "methods": {}
  }
}